{
  "contractName": "GeoAddress",
  "abi": [
    {
      "inputs": [
        {
          "internalType": "string",
          "name": "_lat",
          "type": "string"
        },
        {
          "internalType": "string",
          "name": "_lon",
          "type": "string"
        },
        {
          "internalType": "string",
          "name": "_globalId",
          "type": "string"
        },
        {
          "internalType": "string",
          "name": "_house_number",
          "type": "string"
        }
      ],
      "stateMutability": "nonpayable",
      "type": "constructor"
    },
    {
      "anonymous": false,
      "inputs": [
        {
          "indexed": false,
          "internalType": "string",
          "name": "name",
          "type": "string"
        },
        {
          "indexed": false,
          "internalType": "address",
          "name": "account",
          "type": "address"
        },
        {
          "indexed": false,
          "internalType": "uint256",
          "name": "timestamp",
          "type": "uint256"
        }
      ],
      "name": "Action",
      "type": "event"
    },
    {
      "inputs": [],
      "name": "globalId",
      "outputs": [
        {
          "internalType": "string",
          "name": "",
          "type": "string"
        }
      ],
      "stateMutability": "view",
      "type": "function"
    },
    {
      "inputs": [],
      "name": "houseNumber",
      "outputs": [
        {
          "internalType": "string",
          "name": "",
          "type": "string"
        }
      ],
      "stateMutability": "view",
      "type": "function"
    },
    {
      "inputs": [],
      "name": "lat",
      "outputs": [
        {
          "internalType": "string",
          "name": "",
          "type": "string"
        }
      ],
      "stateMutability": "view",
      "type": "function"
    },
    {
      "inputs": [],
      "name": "lon",
      "outputs": [
        {
          "internalType": "string",
          "name": "",
          "type": "string"
        }
      ],
      "stateMutability": "view",
      "type": "function"
    },
    {
      "inputs": [],
      "name": "status",
      "outputs": [
        {
          "internalType": "enum GeoAddress.STATUSES",
          "name": "",
          "type": "uint8"
        }
      ],
      "stateMutability": "view",
      "type": "function"
    },
    {
      "inputs": [],
      "name": "update",
      "outputs": [],
      "stateMutability": "nonpayable",
      "type": "function"
    }
  ],
  "bytecode": "0x60806040523480156200001157600080fd5b5060405162000f7038038062000f708339818101604052810190620000379190620002e8565b33600160006101000a81548173ffffffffffffffffffffffffffffffffffffffff021916908373ffffffffffffffffffffffffffffffffffffffff1602179055506000600560006101000a81548160ff02191690836001811115620000a157620000a0620003d6565b5b02179055508360029081620000b7919062000650565b508260039081620000c9919062000650565b508160009081620000db919062000650565b508060049081620000ed919062000650565b507fa1017544ae1fb9374130ad8e34196bc75ae20b1f3d1057a420eb63b52fbbc359600160009054906101000a900473ffffffffffffffffffffffffffffffffffffffff164260405162000143929190620007ee565b60405180910390a15050505062000830565b6000604051905090565b600080fd5b600080fd5b600080fd5b600080fd5b6000601f19601f8301169050919050565b7f4e487b7100000000000000000000000000000000000000000000000000000000600052604160045260246000fd5b620001be8262000173565b810181811067ffffffffffffffff82111715620001e057620001df62000184565b5b80604052505050565b6000620001f562000155565b9050620002038282620001b3565b919050565b600067ffffffffffffffff82111562000226576200022562000184565b5b620002318262000173565b9050602081019050919050565b60005b838110156200025e57808201518184015260208101905062000241565b60008484015250505050565b6000620002816200027b8462000208565b620001e9565b905082815260208101848484011115620002a0576200029f6200016e565b5b620002ad8482856200023e565b509392505050565b600082601f830112620002cd57620002cc62000169565b5b8151620002df8482602086016200026a565b91505092915050565b600080600080608085870312156200030557620003046200015f565b5b600085015167ffffffffffffffff81111562000326576200032562000164565b5b6200033487828801620002b5565b945050602085015167ffffffffffffffff81111562000358576200035762000164565b5b6200036687828801620002b5565b935050604085015167ffffffffffffffff8111156200038a576200038962000164565b5b6200039887828801620002b5565b925050606085015167ffffffffffffffff811115620003bc57620003bb62000164565b5b620003ca87828801620002b5565b91505092959194509250565b7f4e487b7100000000000000000000000000000000000000000000000000000000600052602160045260246000fd5b600081519050919050565b7f4e487b7100000000000000000000000000000000000000000000000000000000600052602260045260246000fd5b600060028204905060018216806200045857607f821691505b6020821081036200046e576200046d62000410565b5b50919050565b60008190508160005260206000209050919050565b60006020601f8301049050919050565b600082821b905092915050565b600060088302620004d87fffffffffffffffffffffffffffffffffffffffffffffffffffffffffffffffff8262000499565b620004e4868362000499565b95508019841693508086168417925050509392505050565b6000819050919050565b6000819050919050565b6000620005316200052b6200052584620004fc565b62000506565b620004fc565b9050919050565b6000819050919050565b6200054d8362000510565b620005656200055c8262000538565b848454620004a6565b825550505050565b600090565b6200057c6200056d565b6200058981848462000542565b505050565b5b81811015620005b157620005a560008262000572565b6001810190506200058f565b5050565b601f8211156200060057620005ca8162000474565b620005d58462000489565b81016020851015620005e5578190505b620005fd620005f48562000489565b8301826200058e565b50505b505050565b600082821c905092915050565b6000620006256000198460080262000605565b1980831691505092915050565b600062000640838362000612565b9150826002028217905092915050565b6200065b8262000405565b67ffffffffffffffff81111562000677576200067662000184565b5b6200068382546200043f565b62000690828285620005b5565b600060209050601f831160018114620006c85760008415620006b3578287015190505b620006bf858262000632565b8655506200072f565b601f198416620006d88662000474565b60005b828110156200070257848901518255600182019150602085019450602081019050620006db565b868310156200072257848901516200071e601f89168262000612565b8355505b6001600288020188555050505b505050505050565b600082825260208201905092915050565b7f4352454154454400000000000000000000000000000000000000000000000000600082015250565b60006200078060078362000737565b91506200078d8262000748565b602082019050919050565b600073ffffffffffffffffffffffffffffffffffffffff82169050919050565b6000620007c58262000798565b9050919050565b620007d781620007b8565b82525050565b620007e881620004fc565b82525050565b60006060820190508181036000830152620008098162000771565b90506200081a6020830185620007cc565b620008296040830184620007dd565b9392505050565b61073080620008406000396000f3fe608060405234801561001057600080fd5b50600436106100625760003560e01c8063200d2ed2146100675780634dee73c81461008557806355d576cc146100a3578063a2e62045146100c1578063b6b94bec146100cb578063ca666823146100e9575b600080fd5b61006f610107565b60405161007c91906104eb565b60405180910390f35b61008d61011a565b60405161009a9190610596565b60405180910390f35b6100ab6101a8565b6040516100b89190610596565b60405180910390f35b6100c9610236565b005b6100d3610358565b6040516100e09190610596565b60405180910390f35b6100f16103e6565b6040516100fe9190610596565b60405180910390f35b600560009054906101000a900460ff1681565b60038054610127906105e7565b80601f0160208091040260200160405190810160405280929190818152602001828054610153906105e7565b80156101a05780601f10610175576101008083540402835291602001916101a0565b820191906000526020600020905b81548152906001019060200180831161018357829003601f168201915b505050505081565b600280546101b5906105e7565b80601f01602080910402602001604051908101604052809291908181526020018280546101e1906105e7565b801561022e5780601f106102035761010080835404028352916020019161022e565b820191906000526020600020905b81548152906001019060200180831161021157829003601f168201915b505050505081565b600160009054906101000a900473ffffffffffffffffffffffffffffffffffffffff1673ffffffffffffffffffffffffffffffffffffffff163373ffffffffffffffffffffffffffffffffffffffff161461029057600080fd5b600060018111156102a4576102a3610474565b5b600560009054906101000a900460ff1660018111156102c6576102c5610474565b5b146102d057600080fd5b6001600560006101000a81548160ff021916908360018111156102f6576102f5610474565b5b02179055507fa1017544ae1fb9374130ad8e34196bc75ae20b1f3d1057a420eb63b52fbbc359600160009054906101000a900473ffffffffffffffffffffffffffffffffffffffff164260405161034e9291906106be565b60405180910390a1565b60048054610365906105e7565b80601f0160208091040260200160405190810160405280929190818152602001828054610391906105e7565b80156103de5780601f106103b3576101008083540402835291602001916103de565b820191906000526020600020905b8154815290600101906020018083116103c157829003601f168201915b505050505081565b600080546103f3906105e7565b80601f016020809104026020016040519081016040528092919081815260200182805461041f906105e7565b801561046c5780601f106104415761010080835404028352916020019161046c565b820191906000526020600020905b81548152906001019060200180831161044f57829003601f168201915b505050505081565b7f4e487b7100000000000000000000000000000000000000000000000000000000600052602160045260246000fd5b600281106104b4576104b3610474565b5b50565b60008190506104c5826104a3565b919050565b60006104d5826104b7565b9050919050565b6104e5816104ca565b82525050565b600060208201905061050060008301846104dc565b92915050565b600081519050919050565b600082825260208201905092915050565b60005b83811015610540578082015181840152602081019050610525565b60008484015250505050565b6000601f19601f8301169050919050565b600061056882610506565b6105728185610511565b9350610582818560208601610522565b61058b8161054c565b840191505092915050565b600060208201905081810360008301526105b0818461055d565b905092915050565b7f4e487b7100000000000000000000000000000000000000000000000000000000600052602260045260246000fd5b600060028204905060018216806105ff57607f821691505b602082108103610612576106116105b8565b5b50919050565b7f434f4d504c455445000000000000000000000000000000000000000000000000600082015250565b600061064e600883610511565b915061065982610618565b602082019050919050565b600073ffffffffffffffffffffffffffffffffffffffff82169050919050565b600061068f82610664565b9050919050565b61069f81610684565b82525050565b6000819050919050565b6106b8816106a5565b82525050565b600060608201905081810360008301526106d781610641565b90506106e66020830185610696565b6106f360408301846106af565b939250505056fea2646970667358221220398fb5195e28e41a5cc1bdef006bb51b4082ba5346b9eba7bc21a4d7349c250b64736f6c63430008110033",
  "immutableReferences": {},
  "source": "pragma solidity >=0.4.22 <0.9.0;\r\n\r\ncontract GeoAddress {\r\n    string public globalId;\r\n    address user;\r\n    string public lat;\r\n    string public lon;\r\n    string public houseNumber;\r\n    STATUSES public status;\r\n\r\n    enum STATUSES {\r\n        CREATED,\r\n        COMPLETE\r\n    }\r\n\r\n    event Action (\r\n        string name,\r\n        address account,\r\n        uint timestamp\r\n    );\r\n\r\n    constructor(string memory _lat, string memory _lon, string memory _globalId, string memory _house_number) {\r\n        user = msg.sender;\r\n        status = STATUSES.CREATED;\r\n        lat = _lat;\r\n        lon = _lon;\r\n        globalId = _globalId;\r\n        houseNumber = _house_number;\r\n\r\n        emit Action(\"CREATED\", user, block.timestamp); \r\n    }\r\n\r\n    function update() public {\r\n\r\n        require(msg.sender == user);\r\n        require(status == STATUSES.CREATED);\r\n\r\n        status = STATUSES.COMPLETE;\r\n\r\n        emit Action(\"COMPLETE\", user, block.timestamp);\r\n    }\r\n\r\n}\r\n",
  "sourcePath": "/home/stefan/Desktop/blockchain/dApp/backend/contracts/GeoAddress.sol",
  "compiler": {
    "name": "solc",
    "version": "0.8.17+commit.8df45f5f.Emscripten.clang"
  },
  "schemaVersion": "3.4.10",
  "updatedAt": "2022-12-24T18:26:24.553Z",
  "devdoc": {
    "kind": "dev",
    "methods": {},
    "version": 1
  },
  "userdoc": {
    "kind": "user",
    "methods": {},
    "version": 1
  }
}